:020000040000FA
:100000000C9462000C948A000C948A000C948A0070
:100010000C948A000C948A000C948A000C948A0038
:100020000C948A000C948A000C948A000C948A0028
:100030000C948A000C948A000C948A000C948A0018
:100040000C941A050C948A000C948A050C9464058F
:100050000C948A000C948A000C948A000C948A00F8
:100060000C94BC050C948A000000000024002700BA
:100070002A000000000023002600290000000000E4
:10008000250028002B0004040404040404040202D4
:100090000202020203030303030301020408102007
:1000A0004080010204081020010204081020000012
:1000B0000008000201000003040700000000000027
:1000C0000000DB0611241FBECFEFD8E0DEBFCDBF9E
:1000D00011E0A0E0B1E0ECE7F2E102C005900D9282
:1000E000A436B107D9F722E0A4E6B1E001C01D9221
:1000F000AF3DB207E1F710E0C2E6D0E004C02197BF
:10010000FE010E943609C136D107C9F70E942307B4
:100110000C943C090C940000833081F028F4813069
:1001200099F08230A9F008958730A9F08830C9F09D
:100130008430B1F4809180008F7D03C08091800075
:100140008F7780938000089584B58F7784BD08955C
:1001500084B58F7DFBCF8091B0008F778093B00006
:1001600008958091B0008F7DF9CF1F93CF93DF93D7
:10017000282F30E0F901E255FF4F8491F901E6564E
:10018000FF4FD491F901EA57FF4FC491CC23A9F056
:10019000162F81110E948C00EC2FF0E0EE0FFF1F54
:1001A000E458FF4FA591B4918FB7F894EC911111D9
:1001B00008C0D095DE23DC938FBFDF91CF911F91D4
:1001C0000895DE2BF8CF3FB7F894809126029091E6
:1001D0002702A0912802B091290226B5A89B05C04C
:1001E0002F3F19F00196A11DB11D3FBFBA2FA92FB6
:1001F000982F8827BC01CD01620F711D811D911DB3
:1002000042E0660F771F881F991F4A95D1F708951E
:100210008F929F92AF92BF92CF92DF92EF92FF9216
:100220004B015C010E94E3006B017C010E94E30032
:100230006C197D098E099F09683E734081059105FF
:10024000A8F321E0821A9108A108B10888EEC80E2F
:1002500083E0D81EE11CF11C81149104A104B104B7
:1002600029F7FF90EF90DF90CF90BF90AF909F90D5
:100270008F90089508950895AF92BF92CF92DF9224
:10028000EF92FF920F931F93CF93DF936C017B014B
:100290008B01040F151FEB015E01AE18BF08C017DC
:1002A000D10759F06991D601ED91FC910190F0814F
:1002B000E02DC6010995892B79F7C501DF91CF9112
:1002C0001F910F91FF90EF90DF90CF90BF90AF9074
:1002D0000895FC01538D448D252F30E0842F90E04C
:1002E000821B930B541710F0CF9608950197089531
:1002F000FC01918D828D981761F0A28DAE0FBF2FFA
:10030000B11D5D968C91928D9F5F9F73928F90E04F
:1003100008958FEF9FEF0895FC01918D828D9817BE
:1003200031F0828DE80FF11D858D90E008958FEFFB
:100330009FEF0895FC01918D228D892F90E0805CC4
:100340009F4F821B91098F73992708958AE292E04B
:100350000E949A0121E0892B09F420E0822F089560
:1003600080E090E0892B29F00E94A60181110C9475
:1003700000000895FC01A48DA80FB92FB11DA35A48
:10038000BF4F2C91848D90E001968F739927848FB5
:10039000A689B7892C93A089B1898C9183708064D8
:1003A0008C93938D848D981306C00288F389E02D79
:1003B00080818F7D80830895EF92FF920F931F932A
:1003C000CF93DF93EC0181E0888F9B8D8C8D981308
:1003D0001AC0E889F989808185FF15C09FB7F89414
:1003E000EE89FF896083E889F98980818370806460
:1003F00080839FBF81E090E0DF91CF911F910F91AB
:10040000FF90EF900895F62E0B8D10E00F5F1F4FB9
:100410000F731127E02E8C8D8E110CC00FB607FCC8
:10042000FACFE889F989808185FFF5CFCE010E9456
:10043000BA01F1CFEB8DEC0FFD2FF11DE35AFF4F09
:10044000F0829FB7F8940B8FEA89FB8980818062E4
:10045000CFCFCF93DF93EC01888D8823B9F0AA89A1
:10046000BB89E889F9898C9185FD03C0808186FD6F
:100470000DC00FB607FCF7CF8C9185FFF2CF8081BE
:1004800085FFEDCFCE010E94BA01E9CFDF91CF9178
:10049000089508952091A501260F3327331F213297
:1004A0003105ECF42091EE01FC0190E080E0243075
:1004B00069F082E00895A091A5012191AC014B570C
:1004C0005E4FA40FB52FB11D2C930196861798F39C
:1004D0008091A501680F6093A50180E0089581E0F7
:1004E00008951092EE0181E08093ED011092C80111
:1004F00061E082E10E94B50061E083E10E94B50005
:10050000E9EBF0E080818E7F808380818D7F808326
:1005100088E48093B80085E48093BC000895CF936D
:10052000DF9391E0909384018823B9F0C091B800E3
:10053000D091BA008091BC008A7B8093BC0060E0BF
:1005400082E10E94B50060E083E10E94B5000E9454
:100550007102D093BA00C093B800DF91CF91089593
:100560000895E0911D0280911C02E81730F4F0E03C
:10057000EC59FE4F808190E008958FEF9FEF089532
:1005800090911D0280911C022FEF3FEF981748F4C5
:10059000E92FF0E0EC59FE4F208130E09F5F90930F
:1005A0001D02C901089580911C0290911D02891BB2
:1005B000990B0895CF92DF92EF92FF920F931F93C2
:1005C000CF93DF937C01CB018A012091F401222398
:1005D00089F0EB016B01C40ED51ECC15DD0569F069
:1005E0006991D701ED91FC910190F081E02DC70157
:1005F0000995F3CF642F0E944A02C801DF91CF9181
:100600001F910F91FF90EF90DF90CF900895CF93BF
:10061000DF931F92CDB7DEB769832091F4012223C7
:10062000F9F020911A02203258F021E030E0FC016C
:100630003383228390E080E00F90DF91CF91089583
:1006400080911B02E82FF0E0EB50FE4F99819083E0
:100650008F5F80931B0280931A0281E090E0ECCFC1
:1006600061E0CE0101960E944A02F7CFCF92DF925D
:10067000EF92FF920F931F93CF93DF93FC01C481FE
:1006800021E02093F401C093150210921B021092F6
:100690001A028385682B87EC92E00E940703D091B1
:1006A0001A02D13208F092C00E94E3006B017C0173
:1006B0008091EE01811165C082E08093EE0181E0BE
:1006C0008093ED018FEF8093EC011092EB01D093BA
:1006D000EA01A5EFB1E0EAECF1E080E0D81385C0D3
:1006E0001092C9018091C901CC0FC82BC093C901D8
:1006F0008091C801813009F07CC01092C8010E942D
:10070000E3006B017C018091C9018093BB00809163
:10071000F0019091F101A091F201B091F301892BC8
:100720008A2B8B2B99F00E94E3000091F00110912D
:10073000F1012091F2013091F3016C197D098E09CC
:100740009F090617170728073907E0F18091BC00B9
:1007500083FDD9CF85EC8093BC000E94E3006B0140
:100760007C018091EE01823009F445C08091EC015A
:100770008F3F61F18091EC01803241F18091EC0179
:1007800025C08091F0019091F101A091F201B0910A
:10079000F301892B8A2B8B2B09F48ACF0E94E3006B
:1007A0000091F0011091F1012091F2013091F301DB
:1007B0006C197D098E099F09061717072807390745
:1007C00008F076CF8091EF010E948F0210921B02F9
:1007D00010921A021092F401DF91CF911F910F91A4
:1007E000FF90EF90DF90CF9008959D9191938F5F50
:1007F00075CF85EEB0CF8091F0019091F101A0917D
:10080000F201B091F301892B8A2B8B2B09F4A9CF2C
:100810000E94E3000091F0011091F1012091F2019A
:100820003091F3016C197D098E099F09061717078E
:100830002807390708F095CFC5CF90E080E00895EC
:100840000F931F93CF938C01C62F0E9436036C2FFA
:100850006460C8010E9436036C2F6B7FC8010E9440
:10086000360383EC90E00197F1F7CF911F910F9140
:1008700008950F931F93CF93DF938C01D62FC42F2E
:10088000607F642B0E94200480E1D89FB001112476
:100890006C2BC801DF91CF911F910F910C94200414
:1008A000CF93DF93CDB7DEB728970FB6F894DEBFAE
:1008B0000FBECDBF98E0E0E0F1E0DE0111960190BF
:1008C0000D929A95E1F79091DB02981708F48FEF5B
:1008D00090E0880F991F21E030E02C0F3D1F820F20
:1008E000931FFC016081606840E083ED92E02896F0
:1008F0000FB6F894DEBF0FBECDBFDF91CF910C9441
:10090000390441E00E94390481E090E00895FB0140
:1009100001900020E9F73197AF01461B570BDC012E
:10092000ED91FC910280F381E02D09948F929F92CA
:10093000AF92BF92EF92FF920F931F93CF93DF93EB
:10094000CDB7DEB7A1970FB6F894DEBF0FBECDBF0F
:100950007C01FA01CB0119A2223008F42AE08E01B1
:100960000F5D1F4F822E912CB12CA12CBF01A50130
:1009700094010E941409F901CA016A300CF5605D06
:10098000D8016E938D01232B242B252B79F790E032
:1009900080E0109721F0BD01C7010E948704A19655
:1009A0000FB6F894DEBF0FBECDBFDF91CF911F9180
:1009B0000F91FF90EF90BF90AF909F908F90089510
:1009C000695CDECF85ED8093BC008091F001909151
:1009D000F101A091F201B091F3010796A11DB11DA3
:1009E00023E0B695A795979587952A95D1F72091FD
:1009F000BC0024FD03C01092EE0108954091F00167
:100A00005091F1016091F2017091F301452B462B59
:100A1000472B69F30097A105B10541F02AE22A9519
:100A2000F1F700C00197A109B109E1CF8091EF0171
:100A30000C948F021F920F920FB60F9211242F93D6
:100A40003F938F939F93AF93BF9380912202909196
:100A50002302A0912402B09125023091210223E0CB
:100A6000230F2D3758F50196A11DB11D20932102AA
:100A70008093220290932302A0932402B093250234
:100A80008091260290912702A0912802B09129021C
:100A90000196A11DB11D8093260290932702A09379
:100AA0002802B0932902BF91AF919F918F913F91FE
:100AB0002F910F900FBE0F901F90189526E8230FCF
:100AC0000296A11DB11DD2CF1F920F920FB60F92A9
:100AD00011242F933F934F935F936F937F938F9343
:100AE0009F93AF93BF93EF93FF938AE292E00E94AC
:100AF000BA01FF91EF91BF91AF919F918F917F913B
:100B00006F915F914F913F912F910F900FBE0F907A
:100B10001F9018951F920F920FB60F9211242F93CA
:100B20008F939F93EF93FF93E0913A02F0913B02F2
:100B30008081E0914002F091410282FD1BC09081D2
:100B4000809143028F5F8F7320914402821741F09E
:100B5000E0914302F0E0E65DFD4F958F8093430204
:100B6000FF91EF919F918F912F910F900FBE0F905A
:100B70001F9018958081F4CF1F920F920FB60F929D
:100B800011242F933F934F935F936F937F938F9392
:100B90009F93AF93BF93EF93FF938091B900887FAA
:100BA000803609F44AC0F0F5883209F4A7C018F578
:100BB000803109F49BC0B8F4882309F4F9C0883067
:100BC00009F494C0FF91EF91BF91AF919F918F91E4
:100BD0007F916F915F914F913F912F910F900FBE39
:100BE0000F901F901895883109F488C0803251F712
:100BF0008093EC0114C0803409F49DC040F480332C
:100C0000B9F38833F9F68093EC0185ECB0C08035F8
:100C100009F485C0883509F496C0883499F60E9495
:100C2000E204D0CF883909F48CC038F5883729F030
:100C300050F4883611F0803729F683E08093EE0176
:100C40001092C70157C0883809F47BC0803919F069
:100C5000803809F0B7CF8091C701803208F071C0A9
:100C6000E091C70181E08E0F8093C7018091BB00A6
:100C7000F0E0E955FE4F80833DC0803B39F0E0F461
:100C8000803A09F479C0883A09F09CCF84E08093D7
:100C9000EE011092A6011092A501E0911802F091C8
:100CA000190209958091A50181110FC081E08093FF
:100CB000A5011092850109C0803C09F4A6CF883CAB
:100CC00009F4A3CF883B09F07DCFE091A60181E034
:100CD0008E0F8093A601F0E0EB57FE4F808180934A
:100CE000BB009091A6018091A50129C08091C90106
:100CF0008093BB0085EC8093BC0064CF9091EB01A6
:100D00008091EA01981758F5E091EB0181E08E0F90
:100D10008093EB01F0E0E653FE4F8081E9CFE09154
:100D2000EB0181E08E0F8093EB018091BB00F0E03E
:100D3000E653FE4F80839091EB018091EA01981772
:100D4000C8F285E8D8CFE091EB0181E08E0F809367
:100D5000EB018091BB00F0E0E653FE4F8083809171
:100D6000ED0181115CCF81E08093C80184EA80931A
:100D7000BC001092EE0126CF85EC8093BC0010924F
:100D8000EE018091C701803230F4E091C701F0E0BC
:100D9000E955FE4F10826091C70170E0E0911602A4
:100DA000F091170287EA91E009951092C7010ACFE6
:100DB0001092EC0134CFEAE2F2E01382128288EE64
:100DC00093E0A0E0B0E084839583A683B7832CE012
:100DD00031E03183208325EC30E03587248724EC13
:100DE00030E03787268720EC30E0318B208B21ECF8
:100DF00030E0338B228B22EC30E0358B248B26ECD9
:100E000030E0378B268B118E128E138E148EE7EC0A
:100E1000F2E01382128284839583A683B7838EE1E6
:100E200091E091838083E3EDF2E01382128280E30C
:100E300091E09183808387E2848384E1818784E0E9
:100E4000828713860895789484B5826084BD84B5C2
:100E5000816084BD85B5826085BD85B5816085BDB5
:100E600080916E00816080936E001092810080916D
:100E700081008260809381008091810081608093F5
:100E80008100809180008160809380008091B1001A
:100E900084608093B1008091B00081608093B00045
:100EA00080917A00846080937A0080917A008260D9
:100EB00080937A0080917A00816080937A0080919B
:100EC0007A00806880937A001092C100CCE9D0E06B
:100ED000FE01249108E810E0F80184918823C9F00C
:100EE00090E0880F991FFC01E859FF4FA591B4913C
:100EF000FC01E458FF4F459154919FB7F8943C9101
:100F0000822F809583238C93FA018081282B208364
:100F10009FBFE7EAF0E02491E3E9F0E084918823C1
:100F200099F090E0880F991FFC01E859FF4FA591B7
:100F3000B491FC01E458FF4F859194918FB7F894D8
:100F4000EC91E22BEC938FBF10921D0210921C02C9
:100F500010921B0210921A020E9471028AE391E021
:100F600090931902809318028BE391E090931702FB
:100F7000809316021092D8028091DD02823018F020
:100F800098E09093D8028093DB0262E370E080E007
:100F900090E00E9408016091DE0283ED92E00E94E1
:100FA000360368EE73E080E090E00E94080160E3A1
:100FB00083ED92E00E9420049BE4E92E96E4F92E52
:100FC000C7010197F1F760E383ED92E00E942004EE
:100FD000C7010197F1F760E383ED92E00E942004DE
:100FE00083E592E00197F1F760E283ED92E00E94E1
:100FF00020046091D802606240E083ED92E00E949C
:10100000390484E08093D90240E06CE083ED92E003
:101010000E94390440E061E083ED92E00E943904CF
:101020002BE3E22E2FE1F22EC7010197F1F732E018
:10103000D32ED092DA0240E066E083ED92E00E9487
:10104000390440E062E083ED92E00E943904C70178
:101050000197F1F788E08093DE0260E083ED92E093
:101060000E943603E0913A02F0913B02D082E09177
:101070003602F09137021082E0913802F091390285
:101080008FEC808310924202E0913E02F0913F0289
:1010900086E08083E0913C02F0913D028081806196
:1010A0008083E0913C02F0913D02808188608083E2
:1010B000E0913C02F0913D02808180688083E09164
:1010C0003C02F0913D0280818F7D808340EBE42ED5
:1010D00040E0F42E5BE3C52E5FE1D52E60E0A62E46
:1010E00060E0B62EF7018491FE019490F80184909F
:1010F000882009F486C081110E948C00E82DF0E060
:10110000EE0FFF1FEE58FF4FA591B4918C919822DE
:1011100091E080E009F490E0892E982EA401092C3A
:10112000000C660B770B2AE08AE292E00E9496049C
:1011300068E371E08AE292E00E94870440E061E0A7
:1011400083ED92E00E943904C6010197F1F780E037
:101150008A94892809F058C00E9450046BE371E01A
:1011600083ED92E00E94870460E08DE00E94B5006C
:1011700080912002882349F080911E0290911F02E5
:10118000019690931F0280931E021092200281E02C
:101190000E94500469E571E083ED92E00E948704AB
:1011A00040901E0250901F02052C000C6608770824
:1011B0002AE0B301A20177FE0EC041E06DE283EDAB
:1011C00092E00E94390444275527BA014419550971
:1011D000660977092AE083ED92E00E94960464EFA5
:1011E00071E080E090E00E940801A114B10409F4CC
:1011F00079CF0E94A601882309F474CF0E940000D1
:1012000071CF912C812C8ACF0E9450046CE471E044
:1012100083ED92E00E94870461E08DE00E94B500BA
:1012200081E080932002B3CFA1E21A2EAA1BBB1B40
:10123000FD010DC0AA1FBB1FEE1FFF1FA217B307A2
:10124000E407F50720F0A21BB30BE40BF50B661FB8
:10125000771F881F991F1A9469F76095709580957C
:1012600090959B01AC01BD01CF010895EE0FFF1FCA
:101270000590F491E02D0994F894FFCF0000400010
:101280001400540000000000DC013C016901290247
:101290009A0178018C01000000000703DA021D04A6
:1012A000B002D302C002B1020000000081043C0180
:1012B0001D0449020D0A004265616D3A204E6F74AB
:1012C0002042726F6B656E004265616D3A2042721A
:1012D0006F6B656E00436F756E7465723A20000027
:107E0000112484B714BE81FFF0D085E080938100F7
:107E100082E08093C00088E18093C10086E0809377
:107E2000C20080E18093C4008EE0C9D0259A86E02C
:107E300020E33CEF91E0309385002093840096BBD3
:107E4000B09BFECF1D9AA8958150A9F7CC24DD24C4
:107E500088248394B5E0AB2EA1E19A2EF3E0BF2EE7
:107E6000A2D0813461F49FD0082FAFD0023811F036
:107E7000013811F484E001C083E08DD089C08234E0
:107E800011F484E103C0853419F485E0A6D080C0E4
:107E9000853579F488D0E82EFF2485D0082F10E0AE
:107EA000102F00270E291F29000F111F8ED06801E7
:107EB0006FC0863521F484E090D080E0DECF843638
:107EC00009F040C070D06FD0082F6DD080E0C81688
:107ED00080E7D80618F4F601B7BEE895C0E0D1E017
:107EE00062D089930C17E1F7F0E0CF16F0E7DF06D8
:107EF00018F0F601B7BEE89568D007B600FCFDCFD4
:107F0000A601A0E0B1E02C9130E011968C91119780
:107F100090E0982F8827822B932B1296FA010C0160
:107F200087BEE89511244E5F5F4FF1E0A038BF0790
:107F300051F7F601A7BEE89507B600FCFDCF97BE46
:107F4000E89526C08437B1F42ED02DD0F82E2BD052
:107F50003CD0F601EF2C8F010F5F1F4F84911BD097
:107F6000EA94F801C1F70894C11CD11CFA94CF0C13
:107F7000D11C0EC0853739F428D08EE10CD085E9AC
:107F80000AD08FE07ACF813511F488E018D01DD067
:107F900080E101D065CF982F8091C00085FFFCCF94
:107FA0009093C60008958091C00087FFFCCF809118
:107FB000C00084FD01C0A8958091C6000895E0E648
:107FC000F0E098E1908380830895EDDF803219F02E
:107FD00088E0F5DFFFCF84E1DECF1F93182FE3DFCA
:107FE0001150E9F7F2DF1F91089580E0E8DFEE27F6
:047FF000FF270994CA
:027FFE00040479
:00000001FF
